:0D0480000518344310100101200001210077
:07000300C294D295C29222C3
:1001D1008F20A2079293D292A290920FC292A2066E
:1001E1009293D292A290920EC292A2059293D2922F
:1001F100A290920DC292A2049293D292A290920CDA
:10020100C292A2039293D292A290920BC292A202A4
:100211009293D292A290920AC292A2019293D29206
:10022100A2909209C292A2009293D292A2909208B5
:05023100C292AF212282
:02043800AE050F
:10043A00C2951201D1AD07AF061201D1D295AF050F
:01044A00228F
:0C048E00C2951201D1E4FF1201D1D295F9
:01049A00223F
:060372008B148A158916A8
:10037800C2951201D1AE07E4FDEDC395175016E4FE
:10038800FF1201D1AB14AA15A9168D82F583EF12BD
:0903980002EB0D80E4D295AF06E2
:0103A1002239
:060340008B148A158916DA
:10034600C2951201D1AE07E4FDEDC395175018AB67
:10035600140516E516AA157002051514F91202D22F
:0B036600FF1201D10D80E2D295AF061E
:010371002269
:10044B00C2947D0D7F20120438D2947F147E00124B
:03045B0003D122A8
:1002920012044BC2947B007A0079187517057F2AE5
:1002A2001203407D017F211204387D017F22120456
:1002B200387D287F251204387D207F311204387D55
:1002C200277F261204387D0F7F20120438D2942211
:1002360012044BC2947B007A0079187517057F303B
:100246001203407B007A0079187517057F2A12037E
:10025600407B007A0079447517207FA01203407D09
:10026600017F211204387D017F221204387D1A7F16
:10027600241204387D287F251204387D277F261214
:0C02860004387D0E7F20120438D2942230
:10040E00C295EF640170077FE11201D180057FE292
:06041E001201D1D295226B
:10042400E4FF12040E7F0112040E7DFF7F271204E5
:0404340038D2912207
:1003A2005245414459210D0A00C4E3B0B4CFC2C141
:1003B200CBD7F3B1DFB0B4BCFC0D0A00C4E3B0B4D8
:0F03C200CFC2C1CBD3D2B1DFB0B4BCFC0D0A00A7
:10000E00E4F508F509F50AF50BF50CF50DF50EF509
:10001E000FF510F511F51212045E120471120003A1
:10002E00C296120471D296120471C296120471D243
:10003E0096120471D2991204717BFF7A0379A2127F
:10004E0003F5120292D2B0D2B130B00320B158D221
:10005E00917DFF7F2712043820B006784476AA805F
:10006E000720B104784476551202362091FD7F07A1
:10007E0012048E8F227DFF7F27120438E52230E591
:10008E001B20B00CC296120471D296120471800F0E
:10009E00C2B5120471D2B512047180031204247514
:1000AE00110075120180A2E51245116014E4F511DC
:1000BE00F512120292D2913091FD7F907E011203C1
:1000CE00D1D29130910201537F0712048E8F227D7F
:1000DE00FF7F27120438E52230E64A7B007A00794A
:1000EE00247517207F611203727824E664AA7015B6
:1000FE007BFF7A0379AB1203F5C296120471D29686
:10010E00120471801A7824E6645570137BFF7A030B
:10011E0079BE1203F5C2B5120471D2B5120471E4A0
:10012E007824F60153120424120292D291309102D5
:06013E00015380F901539A
:010144002298
:0404A200410D0A00FE
:10045E00438E805389F0758A3F758CFFC28CC2A97A
:03046E00D2AF22E8
:10030D00C2B1D28CD2A9D2182018FDE4FEEEC3944E
:10031D0008748094805010EF1392B1EFC313FFD285
:10032D00182018FD0E80E6D2B1D2182018FDC28C0F
:02033D00C2A953
:01033F00229B
:1003F5008B138A148915AB13AA14A9151202D2609E
:09040500077FA212030D80EE2214
:03000B0002049B51
:07049B00C2AFC218D2AF325C
:0E04710000007F097E687D8BDDFEDEFCDFFA79
:01047F00225A
:1003D100E4FDEF4E601DE4FDEDFB3395E0FAC3EB68
:1003E1009401EA6480948050030D80ECEF1F70014A
:0303F1001E80DF8C
:0103F40022E6
:03000000020145B5
:0C014500787FE4F6D8FD75816302018C20
:1002D200BB010689828A83E0225002E722BBFE022A
:0902E200E32289828A83E493225D
:1002EB00F8BB010DE58229F582E5833AF583E8F049
:1002FB00225006E92582C8F622BBFE05E92582C8F5
:02030B00F222DC
:1001510002000EE493A3F8E493A34003F68001F2B6
:1001610008DFF48029E493A3F85407240CC8C333AF
:10017100C4540F4420C8834004F456800146F6DF7E
:10018100E4800B0102040810204080900480E47E8A
:10019100019360BCA3FF543F30E509541FFEE49373
:1001A100A360010ECF54C025E060A840B8E493A33A
:1001B100FAE493A3F8E493A3C8C582C8CAC583CA65
:1001C100F0A3C8C582C8CAC583CADFE9DEE780BE1D
:01048D00006E
:00000001FF
